:020000000F28C7
:10000800FE00030EF7000408F8000A08F90083123E
:100018007F08FA00E6281028FB01FC01FD01831285
:10002800A001A101A201A301A40183010E29FF30AF
:1000380083128F0073308E000C107D08031D08009A
:10004800DA2806180800A401A40AFB01FB0AFC012F
:100058000800061834280130F0007008FB07080073
:100068003E307B02031C422843307B02031842289F
:100078000230F0007008A400FB010800A401080089
:10008800061C4B280130F0007008FB0708001E30E2
:100098007B02031C532823307B02031C5528A40130
:1000A8000800FB010330F0007008A40008000618DF
:1000B80062280130F0007008FB07080002307B025C
:1000C800031C6A2807307B02031C6C28A401080063
:1000D8000430F0007008A400FB010800061C792811
:1000E8000130F0007008FB07080002307B02031C97
:1000F800A12807307B020318A1287C03FF3A1F3E82
:10010800F000F00A0130F1000030F2008E280310F0
:10011800F10DF20DF00B8B28F109F2097108F300CB
:100128007208F400F501F6017308A0057408A1052A
:100138007508A2057608A305C92809307B02031CA7
:10014800C7280E307B020318C7287C03FF3A1F3EDE
:10015800F000F00A0130F1000030F200B628031078
:10016800F10DF20DF00BB3287108F3007208F400DA
:10017800F501F6017308A0047408A1047508A20427
:100188007608A304C928A40108000130F00070080B
:10019800FC0720307C06031DD528FD01FD0AA401BB
:1001A80008000330F0007008A40008002408840048
:1001B800053004020318080001308A0009300407DA
:1001C800820008000C1CEC2883160C1CEC281B2051
:1001D8007A088312FF0079088A0078088400770E6D
:1001E8008300FE0E7E0E09008316061483129015F6
:1001F8001015101483160C140B178B17FF3083126D
:100208008F0073308E000C10080025282D284428F4
:080218005B287228F8200F2971
:00000001FF
