:020000000F28C7
:10000800FE00030EFA000408FB000A08FC00831235
:100018007F08FD00FA2910285022A900A001A1019B
:10002800A201A301A401A501A601A701A8018301BA
:100038004D2A83121010FF308F0091308E000C1063
:1000480010142808031D08004D290618080001305F
:10005800F0007008A5000130F0007008A700A601A4
:10006800080006183C280130F0007008A5070800B1
:1000780031302502031C4D285030250203184D2825
:100088000130F0007008A5000230F0007008A700E9
:100098000800A7010800061C56280130F000700867
:1000A800A507080011302502031C5E283030250200
:1000B800031C6028A70108000130F0007008A500A3
:1000C8000330F0007008A7000800061870280130F7
:1000D800F0007008A507080002302502031C7828E4
:1000E80007302502031C7A28A70108000130F00018
:1000F8007008A5000430F0007008A7000800061C6E
:100108008A280130F0007008A5070800023025028F
:10011800031CB428073025020318B4280130F00066
:100128000030F1000030F2000030F3002603FF3AFF
:100138001F3E013EA4280310F00DF10DF20DF30D42
:10014800FF3E031D9F28F009F109F209F309700821
:10015800A0057108A1057208A2057308A305DC288B
:1001680009302502031CDA280E3025020318DA2884
:100178000130F0000030F1000030F2000030F300F0
:100188002603FF3A1F3E013ECE280310F00DF10D65
:10019800F20DF30DFF3E031DC9287008A004710875
:1001A800A1047208A2047308A304DC28A7010800AC
:1001B8000130F0007008A60720302606031D4429E8
:1001C80010100130F0007008A800831226080319E7
:1001D80041290615F501F6017608803AFF008030BE
:1001E8007F02031DF9281930750203180D29000034
:1001F8000130F5070318F60A0030F6077608803A4A
:10020800FF0080307F02031D0B2919307502031C83
:10021800FB2883122008F0002108F1002208F200D0
:100228002308F3000130A602260A1F290310F30C45
:10023800F20CF10CF00CFF3E031D1A29700801396D
:10024800F400F40DF40D06087406FB3974068600F4
:10025800F701F8017808803AFF0080307F02031D1B
:100268003729643077020318E92800000130F707BE
:100278000318F80A0030F8072E291014A7010800FF
:100288000130F0007008A5000330F0007008A700E6
:10029800080027088400053004020318080002300B
:1002A8008A0048300407820008000130F40074080E
:1002B8008312A4070730F4007408A4054122882992
:1002C800F0010030C8219429F0010230C821942996
:1002D800F001033096219429F001F00A03309621A9
:1002E8009429F001F00A0030C8219429F001F00A9D
:1002F8000230C8219429F0010330C8219429F00163
:10030800F00A0330C8219429831224088400083095
:1003180004020318942902308A0039300407820045
:100328000B110800F30070080319A9290130F10026
:10033800730AA0290310F10DFF3E031D9E297108C1
:10034800F200720883128604B8290130F100730A9A
:10035800AF290310F10DFF3E031DAD297108FF3AC7
:10036800F2007208831286050130F100730ABE2973
:100378000310F10DFF3E031DBC297108FF3AF2007E
:100388007208831686050800F30070080319DB2934
:100398000130F100730AD2290310F10DFF3E031D4D
:1003A800D0297108F200720883128504EA29013005
:1003B800F100730AE1290310F10DFF3E031DDF2947
:1003C8007108FF3AF2007208831285050130F100C6
:1003D800730AF0290310F10DFF3E031DEE29710881
:1003E800FF3AF20072088316850508000B1D022AE1
:1003F80029080319012A5921022A0B1183122808F6
:1004080003190B2A0130F9007908A906A8010C1C68
:10041800112A83160C1C112A1D207D088312FF0047
:100428007C088A007B0884007A0E8300FE0E7E0E0C
:100438000900831606148312101583160C140B1763
:100448008B1783121010FF308F0091308E000C1024
:1004580010148316061108008316811107308104D1
:1004680081120B118B168B170800642968296C29D7
:10047800702975297A297F2983290D30F0007008A1
:100488008316850486150800292835284F286928E9
:0A049800832830221D224F2A013470
:02400E00B9FFF8
:00000001FF
