:020000000F28C7
:10000800FE00030E8312A7000408A8000A08A9002E
:100018007F08AA0090291028C921AB00A001A101DE
:10002800A201A301A401A501A601FC01FD01830110
:10003800C729FF3083128F0073308E000C102608FA
:10004800031D0800F128061808000130F50075089E
:10005800A5000130F5007508FC00FD01080001301D
:10006800FD20831206183D280130F5007508FC07AD
:10007800080033307C02031C4B284D307C020318E7
:100088004B280230F5007508A500FC010800A50101
:1000980008000230FD208312061C57280130F500A5
:1000A8007508FC07080019307C02031C5F282730FC
:1000B8007C02031C6128A5010800FC010330F5003F
:1000C8007508A50008000330FD2083120618712862
:1000D8000130F5007508FC07080003307C02031C9A
:1000E800792805307C02031C7B28A5010800043010
:1000F800F5007508A500FC0108000430FD208312F6
:10010800061C8B280130F5007508FC070800033031
:100118007C02031CB32805307C020318B3287D0336
:10012800FF3A1F3EF500F50A0130F6000030F700EF
:10013800A0280310F60DF70DF50B9D28F609F70911
:100148007608F8007708F900FA01FB017808A0059D
:100158007908A1057A08A2057B08A305DB280830E1
:100168007C02031CD9280E307C020318D9287D0391
:10017800FF3A1F3EF500F50A0130F6000030F7009F
:10018800C8280310F60DF70DF50BC5287608F800FA
:100198007708F900FA01FB017808A0047908A1049E
:1001A8007A08A2047B08A304DB28A5010800013013
:1001B800F5007508FD0720307D06031DEB2801308A
:1001C800F5007508A600A5010530FD2008000330DC
:1001D800F50075088312A50008002508840005307D
:1001E80004020318080001308A00C23004078200A4
:1001F8000800F400BB212429F00100306021080028
:10020800F001023060210800F001033030210800BD
:10021800F001F00A033030210800F001F00A003044
:1002280060210800F001F00A023060210800F001A6
:10023800033060210800F001F00A03306021080053
:1002480074088400083004020318080001308A008A
:10025800B330040782000800F3007008031943292B
:100268000130F100730A3A290310F10DFF3E031D16
:1002780038297108F2007208831286045229013065
:10028800F100730A49290310F10DFF3E031D4729A8
:100298007108FF3AF2007208831286050130F100F6
:1002A800730A58290310F10DFF3E031D56297108E2
:1002B800FF3A831686000800F300700803197329B3
:1002C8000130F100730A6A290310F10DFF3E031D86
:1002D80068297108F20072088312850482290130A6
:1002E800F100730A79290310F10DFF3E031D7729E8
:1002F8007108FF3AF2007208831285050130F10097
:10030800730A88290310F10DFF3E031D8629710821
:10031800FF3A8316850008000C1C962983160C1CCE
:1003280096291D2083122A08FF0029088A00280818
:100338008400270E8300FE0E7E0E09008316061425
:10034800831290151015101483160C140B178B17A5
:10035800FF3083128F0073308E000C1008000029C4
:10036800042908290C29112916291B291F290D30B0
:10037800F00070088316850486150800272833289E
:0C0388004D2867288128A221C8290134D3
:02400E00B9FFF8
:00000001FF
