:020000000F28C7
:10000800FE00030E8312A7000408A8000A08A9002E
:100018007F08AA0092291028CB21AB00A001A101DA
:10002800A201A301A401A501A601FC01FD01830110
:10003800C92983121010FF308F0091308E000C10E8
:1000480010142608031D0800EF2806180800FC01F4
:100058000130F5007508A500FD0108000130FB20FE
:10006800831206183C280130F5007508FC070800C3
:1000780031307C02031C4A2850307C0203184A287D
:10008800FC010230F5007508A5000800A50108006C
:100098000230FB208312061C56280130F500750833
:1000A800FC07080011307C02031C5E2830307C02FB
:1000B800031C6028A5010800FC010330F500750841
:1000C800A50008000330FB208312061870280130B1
:1000D800F5007508FC0708007C0803197728083024
:1000E8007C02031C7928A5010800FC010430F500F6
:1000F8007508A50008000430FB208312061C892817
:100108000130F5007508FC0708007C080319B028C1
:1001180008307C020318B0287D03FF3A1F3EF50023
:10012800F50A0130F6000030F7009D280310F60D9F
:10013800F70DF50B9A28F609F7097608F8007708FD
:10014800F900FA01FB017808A0057908A1057A08E9
:10015800A2057B08A305D82808307C02031CD628F2
:100168000F307C020318D6287D03FF3A1F3EF500A6
:10017800F50A0130F6000030F700C5280310F60D27
:10018800F70DF50BC2287608F8007708F900FA0190
:10019800FB017808A0047908A1047A08A2047B0866
:1001A800A304D828A50108000130F5007508FD074B
:1001B80020307D06031DE8280130F5007508A600EB
:1001C800A5010530FB200800FC010330F500750887
:1001D8008312A500080025088400053004020318CE
:1001E800080001308A00C430040782000800F400C7
:1001F800BD212229F001003060210800F001023001
:1002080060210800F00103302E210800F001F00AF7
:1002180003302E210800F001F00A003060210800A8
:10022800F001F00A023060210800F001033060217B
:100238000800F001F00A0330602108007408840007
:10024800083004020318080001308A00B53004079A
:1002580082000800F3007008031941290130F100F9
:10026800730A38290310F10DFF3E031D3629710862
:10027800F20072088312860450290130F100730AD3
:1002880047290310F10DFF3E031D45297108FF3A68
:10029800F2007208831286050130F100730A5629AC
:1002A8000310F10DFF3E031D54297108FF3AF200B7
:1002B8007208831686050800F3007008031973296D
:1002C8000130F100730A6A290310F10DFF3E031D86
:1002D80068297108F20072088312850482290130A6
:1002E800F100730A79290310F10DFF3E031D7729E8
:1002F8007108FF3AF2007208831285050130F10097
:10030800730A88290310F10DFF3E031D8629710821
:10031800FF3AF20072088316850508000C1C98291C
:1003280083160C1C98291D2083122A08FF0029080F
:100338008A0028088400270E8300FE0E7E0E09001E
:10034800831606148312101583160C140B178B17BB
:1003580083121010FF308F0091308E000C10101493
:100368000800FE28022906290A290F291429192913
:100378001D290D30F00070088316850486150800C5
:10038800292832284C2866287F28A421CA29013424
:02400E00B9FFF8
:00000001FF
