:020000000F28C7
:10000800FE00030EF7000408F8000A08F90083123E
:100018007F08FA00A4291028FB01FC01FD018312C6
:10002800A001A101A201A301A401A5018301D7296F
:10003800FF3083128F0073308E000C107D08031D73
:100048000800DB2806180800A501A50AFB01FB0A21
:10005800FC010800061835280130F0007008FB077D
:1000680008003E307B02031C432843307B02031800
:1000780043280230F0007008A500FB010800A50124
:100088000800061C4C280130F0007008FB07080027
:100098001E307B02031C542823307B02031C562885
:1000A800A5010800FB010330F0007008A500080056
:1000B800061863280130F0007008FB0708000230BA
:1000C8007B02031C6B2807307B02031C6D28A501EB
:1000D80008000430F0007008A500FB010800061CA9
:1000E8007A280130F0007008FB07080002307B0214
:1000F800031CA22807307B020318A2287C03FF3ABE
:100108001F3EF000F00A0130F1000030F2008F28A5
:100118000310F10DF20DF00B8C28F109F2097108AA
:10012800F3007208F400F501F6017308A0057408DD
:10013800A1057508A2057608A305CA2809307B021F
:10014800031CC8280E307B020318C8287C03FF3A1A
:100158001F3EF000F00A0130F1000030F200B7282D
:100168000310F10DF20DF00BB4287108F3007208BA
:10017800F400F501F6017308A0047408A1047508D9
:10018800A2047608A304CA28A50108000130F000DB
:100198007008FC0720307C06031DD628FD01FD0AE7
:1001A800A50108000330F0007008A5000800250824
:1001B8008400053004020318080001308A00D23098
:1001C8000407820008000130F40074088312A407B1
:1001D8000730F4007408A40587211629F0010030BF
:1001E80055210800F001023055210800F0010330C4
:1001F80023210800F001F00A033023210800F00150
:10020800F00A003055210800F001F00A02305521AB
:100218000800F001033055210800F001F00A03300E
:1002280055210800831224088400083004020318AA
:10023800080001308A00CA30040782000800F30071
:100248007008031936290130F100730A2D290310AB
:10025800F10DFF3E031D2B297108F200720883126D
:10026800860445290130F100730A3C290310F10D79
:10027800FF3E031D3A297108FF3AF2007208831203
:1002880086050130F100730A4B290310F10DFF3E7A
:10029800031D49297108FF3AF20072088316860582
:1002A8000800F3007008031968290130F100730A87
:1002B8005F290310F10DFF3E031D5D297108F2004F
:1002C80072088312850477290130F100730A6E29B8
:1002D8000310F10DFF3E031D6C297108FF3AF2006F
:1002E8007208831285050130F100730A7D29031015
:1002F800F10DFF3E031D7B297108FF3AF2007208D9
:100308008316850508008316851D8C2901308D29E3
:100318000030F000003005180138051901380038A0
:10032800031998290130992900307004F1007108E7
:100338008504003086190130F00070088604080032
:100348000C1CAA2983160C1CAA291C200B1DAD29DC
:10035800E7207A088312FF0079088A007808840069
:10036800770E8300FE0E7E0E090083160614831294
:1003780090151015101483160C140B178B17FF30DB
:1003880083128F0073308E000C100800F228F628B4
:10039800FA28FE28032908290D29112926282E289C
:0A03A80045285C287328B921D829E4
:00000001FF
