:020000000F28C7
:10000800FE00030EF8000408F9000A08FA0083123B
:100018007F08FB008F291028E221A700A001A10179
:10002800A201A301A401A501A601FC01FD01830110
:10003800E029FF3083128F0073308E000C102608E1
:10004800031D0800E228061808000130F0007008B7
:10005800A5000130F0007008FC00FD01080006183A
:100068003A280130F0007008FC0708003E307C0296
:10007800031C482843307C02031848280230F0004B
:100088007008A500FC010800A5010800061C5128FD
:100098000130F0007008FC0708001E307C02031CC9
:1000A800592823307C02031C5B28A5010800FC01A9
:1000B8000330F0007008A500080006186828013011
:1000C800F0007008FC07080002307C02031C70284E
:1000D80007307C02031C7228A50108000430F000D8
:1000E8007008A500FC010800061C7F280130F000FC
:1000F8007008FC07080002307C02031CA7280730A0
:100108007C020318A7287D03FF3A1F3EF000F00A7F
:100118000130F1000030F20094280310F10DF20DC7
:10012800F00B9128F109F2097108F3007208F40044
:10013800F501F6017308A0057408A1057508A20564
:100148007608A305CF2809307C02031CCD280E3081
:100158007C020318CD287D03FF3A1F3EF000F00A09
:100168000130F1000030F200BC280310F10DF20D4F
:10017800F00BB9287108F3007208F400F501F601D4
:100188007308A0047408A1047508A2047608A304DF
:10019800CF28A50108000130F0007008FD072030C5
:1001A8007D06031DDD280130F0007008A600A501BA
:1001B80008000330F0007008A50008002508840036
:1001C800053004020318080001308A00DB300407F8
:1001D800820008000130F40074088312A407073075
:1001E800F4007408A405AD211D29F00100305D213B
:1001F8002929F00102305D212929F00103302B2142
:100208002929F001F00A03302B212929F001F00AED
:1002180000305D212929F001F00A02305D212929E9
:10022800F00103305D212929F001F00A03305D2136
:100238002929831224088400083004020318292974
:1002480001308A00D330040782000B110800F30044
:10025800700803193E290130F100730A352903108B
:10026800F10DFF3E031D33297108F2007208831255
:1002780086044D290130F100730A44290310F10D59
:10028800FF3E031D42297108FF3AF20072088312EB
:1002980086050130F100730A53290310F10DFF3E62
:1002A800031D51297108FF3AF2007208831686056A
:1002B8000800F3007008031970290130F100730A6F
:1002C80067290310F10DFF3E031D65297108F2002F
:1002D8007208831285047F290130F100730A762998
:1002E8000310F10DFF3E031D74297108FF3AF20057
:1002F8007208831285050130F100730A85290310FD
:10030800F10DFF3E031D83297108FF3AF2007208C0
:100318008316850508000B1D9229EE2083122608F6
:1003280003199B290130F7007708A706A6010C1CC2
:10033800A12983160C1CA1291D207B088312FF000C
:100348007A088A0079088400780E8300FE0E7E0EF3
:1003580009008316851DB2290130B3290030F00049
:100368000030051801380519013800380319BE296D
:100378000130BF2900307004F10071088504003095
:1003880086190130F0007008860408008316811170
:100398000730810481120B118B168B170800F9287E
:1003A800FD28012905290A290F2914291829272890
:0E03B80033284A2861287828CA21E129013417
:02400E00B9FFF8
:00000001FF
